{
  "_format": "hh-sol-artifact-1",
  "contractName": "ProjectAccess1155",
  "sourceName": "contracts/ProjectAccess1155.sol",
  "abi": [
    {
      "inputs": [
        {
          "internalType": "string",
          "name": "_name",
          "type": "string"
        },
        {
          "internalType": "string",
          "name": "_symbol",
          "type": "string"
        },
        {
          "internalType": "string",
          "name": "_uri",
          "type": "string"
        },
        {
          "internalType": "address",
          "name": "admin",
          "type": "address"
        }
      ],
      "stateMutability": "nonpayable",
      "type": "constructor"
    },
    {
      "inputs": [],
      "name": "AccessControlBadConfirmation",
      "type": "error"
    },
    {
      "inputs": [
        {
          "internalType": "address",
          "name": "account",
          "type": "address"
        },
        {
          "internalType": "bytes32",
          "name": "neededRole",
          "type": "bytes32"
        }
      ],
      "name": "AccessControlUnauthorizedAccount",
      "type": "error"
    },
    {
      "inputs": [
        {
          "internalType": "address",
          "name": "sender",
          "type": "address"
        },
        {
          "internalType": "uint256",
          "name": "balance",
          "type": "uint256"
        },
        {
          "internalType": "uint256",
          "name": "needed",
          "type": "uint256"
        },
        {
          "internalType": "uint256",
          "name": "tokenId",
          "type": "uint256"
        }
      ],
      "name": "ERC1155InsufficientBalance",
      "type": "error"
    },
    {
      "inputs": [
        {
          "internalType": "address",
          "name": "approver",
          "type": "address"
        }
      ],
      "name": "ERC1155InvalidApprover",
      "type": "error"
    },
    {
      "inputs": [
        {
          "internalType": "uint256",
          "name": "idsLength",
          "type": "uint256"
        },
        {
          "internalType": "uint256",
          "name": "valuesLength",
          "type": "uint256"
        }
      ],
      "name": "ERC1155InvalidArrayLength",
      "type": "error"
    },
    {
      "inputs": [
        {
          "internalType": "address",
          "name": "operator",
          "type": "address"
        }
      ],
      "name": "ERC1155InvalidOperator",
      "type": "error"
    },
    {
      "inputs": [
        {
          "internalType": "address",
          "name": "receiver",
          "type": "address"
        }
      ],
      "name": "ERC1155InvalidReceiver",
      "type": "error"
    },
    {
      "inputs": [
        {
          "internalType": "address",
          "name": "sender",
          "type": "address"
        }
      ],
      "name": "ERC1155InvalidSender",
      "type": "error"
    },
    {
      "inputs": [
        {
          "internalType": "address",
          "name": "operator",
          "type": "address"
        },
        {
          "internalType": "address",
          "name": "owner",
          "type": "address"
        }
      ],
      "name": "ERC1155MissingApprovalForAll",
      "type": "error"
    },
    {
      "anonymous": false,
      "inputs": [
        {
          "indexed": true,
          "internalType": "address",
          "name": "account",
          "type": "address"
        },
        {
          "indexed": true,
          "internalType": "address",
          "name": "operator",
          "type": "address"
        },
        {
          "indexed": false,
          "internalType": "bool",
          "name": "approved",
          "type": "bool"
        }
      ],
      "name": "ApprovalForAll",
      "type": "event"
    },
    {
      "anonymous": false,
      "inputs": [
        {
          "indexed": true,
          "internalType": "bytes32",
          "name": "role",
          "type": "bytes32"
        },
        {
          "indexed": true,
          "internalType": "bytes32",
          "name": "previousAdminRole",
          "type": "bytes32"
        },
        {
          "indexed": true,
          "internalType": "bytes32",
          "name": "newAdminRole",
          "type": "bytes32"
        }
      ],
      "name": "RoleAdminChanged",
      "type": "event"
    },
    {
      "anonymous": false,
      "inputs": [
        {
          "indexed": true,
          "internalType": "bytes32",
          "name": "role",
          "type": "bytes32"
        },
        {
          "indexed": true,
          "internalType": "address",
          "name": "account",
          "type": "address"
        },
        {
          "indexed": true,
          "internalType": "address",
          "name": "sender",
          "type": "address"
        }
      ],
      "name": "RoleGranted",
      "type": "event"
    },
    {
      "anonymous": false,
      "inputs": [
        {
          "indexed": true,
          "internalType": "bytes32",
          "name": "role",
          "type": "bytes32"
        },
        {
          "indexed": true,
          "internalType": "address",
          "name": "account",
          "type": "address"
        },
        {
          "indexed": true,
          "internalType": "address",
          "name": "sender",
          "type": "address"
        }
      ],
      "name": "RoleRevoked",
      "type": "event"
    },
    {
      "anonymous": false,
      "inputs": [
        {
          "indexed": true,
          "internalType": "address",
          "name": "operator",
          "type": "address"
        },
        {
          "indexed": true,
          "internalType": "address",
          "name": "from",
          "type": "address"
        },
        {
          "indexed": true,
          "internalType": "address",
          "name": "to",
          "type": "address"
        },
        {
          "indexed": false,
          "internalType": "uint256[]",
          "name": "ids",
          "type": "uint256[]"
        },
        {
          "indexed": false,
          "internalType": "uint256[]",
          "name": "values",
          "type": "uint256[]"
        }
      ],
      "name": "TransferBatch",
      "type": "event"
    },
    {
      "anonymous": false,
      "inputs": [
        {
          "indexed": true,
          "internalType": "address",
          "name": "operator",
          "type": "address"
        },
        {
          "indexed": true,
          "internalType": "address",
          "name": "from",
          "type": "address"
        },
        {
          "indexed": true,
          "internalType": "address",
          "name": "to",
          "type": "address"
        },
        {
          "indexed": false,
          "internalType": "uint256",
          "name": "id",
          "type": "uint256"
        },
        {
          "indexed": false,
          "internalType": "uint256",
          "name": "value",
          "type": "uint256"
        }
      ],
      "name": "TransferSingle",
      "type": "event"
    },
    {
      "anonymous": false,
      "inputs": [
        {
          "indexed": false,
          "internalType": "string",
          "name": "value",
          "type": "string"
        },
        {
          "indexed": true,
          "internalType": "uint256",
          "name": "id",
          "type": "uint256"
        }
      ],
      "name": "URI",
      "type": "event"
    },
    {
      "inputs": [],
      "name": "DEFAULT_ADMIN_ROLE",
      "outputs": [
        {
          "internalType": "bytes32",
          "name": "",
          "type": "bytes32"
        }
      ],
      "stateMutability": "view",
      "type": "function"
    },
    {
      "inputs": [],
      "name": "MINTER_ROLE",
      "outputs": [
        {
          "internalType": "bytes32",
          "name": "",
          "type": "bytes32"
        }
      ],
      "stateMutability": "view",
      "type": "function"
    },
    {
      "inputs": [
        {
          "internalType": "address",
          "name": "account",
          "type": "address"
        },
        {
          "internalType": "uint256",
          "name": "id",
          "type": "uint256"
        }
      ],
      "name": "balanceOf",
      "outputs": [
        {
          "internalType": "uint256",
          "name": "",
          "type": "uint256"
        }
      ],
      "stateMutability": "view",
      "type": "function"
    },
    {
      "inputs": [
        {
          "internalType": "address[]",
          "name": "accounts",
          "type": "address[]"
        },
        {
          "internalType": "uint256[]",
          "name": "ids",
          "type": "uint256[]"
        }
      ],
      "name": "balanceOfBatch",
      "outputs": [
        {
          "internalType": "uint256[]",
          "name": "",
          "type": "uint256[]"
        }
      ],
      "stateMutability": "view",
      "type": "function"
    },
    {
      "inputs": [
        {
          "internalType": "address",
          "name": "from",
          "type": "address"
        },
        {
          "internalType": "uint256",
          "name": "tokenId",
          "type": "uint256"
        },
        {
          "internalType": "uint256",
          "name": "amount",
          "type": "uint256"
        }
      ],
      "name": "burn",
      "outputs": [],
      "stateMutability": "nonpayable",
      "type": "function"
    },
    {
      "inputs": [
        {
          "internalType": "bytes32",
          "name": "role",
          "type": "bytes32"
        }
      ],
      "name": "getRoleAdmin",
      "outputs": [
        {
          "internalType": "bytes32",
          "name": "",
          "type": "bytes32"
        }
      ],
      "stateMutability": "view",
      "type": "function"
    },
    {
      "inputs": [
        {
          "internalType": "bytes32",
          "name": "role",
          "type": "bytes32"
        },
        {
          "internalType": "address",
          "name": "account",
          "type": "address"
        }
      ],
      "name": "grantRole",
      "outputs": [],
      "stateMutability": "nonpayable",
      "type": "function"
    },
    {
      "inputs": [
        {
          "internalType": "bytes32",
          "name": "role",
          "type": "bytes32"
        },
        {
          "internalType": "address",
          "name": "account",
          "type": "address"
        }
      ],
      "name": "hasRole",
      "outputs": [
        {
          "internalType": "bool",
          "name": "",
          "type": "bool"
        }
      ],
      "stateMutability": "view",
      "type": "function"
    },
    {
      "inputs": [
        {
          "internalType": "address",
          "name": "account",
          "type": "address"
        },
        {
          "internalType": "address",
          "name": "operator",
          "type": "address"
        }
      ],
      "name": "isApprovedForAll",
      "outputs": [
        {
          "internalType": "bool",
          "name": "",
          "type": "bool"
        }
      ],
      "stateMutability": "view",
      "type": "function"
    },
    {
      "inputs": [
        {
          "internalType": "address",
          "name": "to",
          "type": "address"
        },
        {
          "internalType": "uint256",
          "name": "tokenId",
          "type": "uint256"
        },
        {
          "internalType": "uint256",
          "name": "amount",
          "type": "uint256"
        }
      ],
      "name": "mint",
      "outputs": [],
      "stateMutability": "nonpayable",
      "type": "function"
    },
    {
      "inputs": [
        {
          "internalType": "address[]",
          "name": "recipients",
          "type": "address[]"
        },
        {
          "internalType": "uint256",
          "name": "tokenId",
          "type": "uint256"
        }
      ],
      "name": "mintBatch",
      "outputs": [],
      "stateMutability": "nonpayable",
      "type": "function"
    },
    {
      "inputs": [],
      "name": "name",
      "outputs": [
        {
          "internalType": "string",
          "name": "",
          "type": "string"
        }
      ],
      "stateMutability": "view",
      "type": "function"
    },
    {
      "inputs": [
        {
          "internalType": "bytes32",
          "name": "role",
          "type": "bytes32"
        },
        {
          "internalType": "address",
          "name": "callerConfirmation",
          "type": "address"
        }
      ],
      "name": "renounceRole",
      "outputs": [],
      "stateMutability": "nonpayable",
      "type": "function"
    },
    {
      "inputs": [
        {
          "internalType": "bytes32",
          "name": "role",
          "type": "bytes32"
        },
        {
          "internalType": "address",
          "name": "account",
          "type": "address"
        }
      ],
      "name": "revokeRole",
      "outputs": [],
      "stateMutability": "nonpayable",
      "type": "function"
    },
    {
      "inputs": [
        {
          "internalType": "address",
          "name": "from",
          "type": "address"
        },
        {
          "internalType": "address",
          "name": "to",
          "type": "address"
        },
        {
          "internalType": "uint256[]",
          "name": "ids",
          "type": "uint256[]"
        },
        {
          "internalType": "uint256[]",
          "name": "values",
          "type": "uint256[]"
        },
        {
          "internalType": "bytes",
          "name": "data",
          "type": "bytes"
        }
      ],
      "name": "safeBatchTransferFrom",
      "outputs": [],
      "stateMutability": "nonpayable",
      "type": "function"
    },
    {
      "inputs": [
        {
          "internalType": "address",
          "name": "from",
          "type": "address"
        },
        {
          "internalType": "address",
          "name": "to",
          "type": "address"
        },
        {
          "internalType": "uint256",
          "name": "id",
          "type": "uint256"
        },
        {
          "internalType": "uint256",
          "name": "value",
          "type": "uint256"
        },
        {
          "internalType": "bytes",
          "name": "data",
          "type": "bytes"
        }
      ],
      "name": "safeTransferFrom",
      "outputs": [],
      "stateMutability": "nonpayable",
      "type": "function"
    },
    {
      "inputs": [
        {
          "internalType": "address",
          "name": "operator",
          "type": "address"
        },
        {
          "internalType": "bool",
          "name": "approved",
          "type": "bool"
        }
      ],
      "name": "setApprovalForAll",
      "outputs": [],
      "stateMutability": "nonpayable",
      "type": "function"
    },
    {
      "inputs": [
        {
          "internalType": "bytes4",
          "name": "interfaceId",
          "type": "bytes4"
        }
      ],
      "name": "supportsInterface",
      "outputs": [
        {
          "internalType": "bool",
          "name": "",
          "type": "bool"
        }
      ],
      "stateMutability": "view",
      "type": "function"
    },
    {
      "inputs": [],
      "name": "symbol",
      "outputs": [
        {
          "internalType": "string",
          "name": "",
          "type": "string"
        }
      ],
      "stateMutability": "view",
      "type": "function"
    },
    {
      "inputs": [
        {
          "internalType": "uint256",
          "name": "",
          "type": "uint256"
        }
      ],
      "name": "uri",
      "outputs": [
        {
          "internalType": "string",
          "name": "",
          "type": "string"
        }
      ],
      "stateMutability": "view",
      "type": "function"
    }
  ],
  "bytecode": "0x60806040523480156200001157600080fd5b5060405162001c5738038062001c57833981016040819052620000349162000231565b816200004081620000a4565b5060046200004f858262000375565b5060056200005e848262000375565b506200006c600082620000b6565b50620000997f9f2df0fed2c77648de5860a4cc508cd0818c85b8b8a1ab4ceeef8d981c8956a682620000b6565b505050505062000441565b6002620000b2828262000375565b5050565b60008281526003602090815260408083206001600160a01b038516845290915281205460ff166200015f5760008381526003602090815260408083206001600160a01b03861684529091529020805460ff19166001179055620001163390565b6001600160a01b0316826001600160a01b0316847f2f8788117e7eff1d82e926ec794901d17c78024a50270940304540a733656f0d60405160405180910390a450600162000163565b5060005b92915050565b634e487b7160e01b600052604160045260246000fd5b600082601f8301126200019157600080fd5b81516001600160401b0380821115620001ae57620001ae62000169565b604051601f8301601f19908116603f01168101908282118183101715620001d957620001d962000169565b8160405283815260209250866020858801011115620001f757600080fd5b600091505b838210156200021b5785820183015181830184015290820190620001fc565b6000602085830101528094505050505092915050565b600080600080608085870312156200024857600080fd5b84516001600160401b03808211156200026057600080fd5b6200026e888389016200017f565b955060208701519150808211156200028557600080fd5b62000293888389016200017f565b94506040870151915080821115620002aa57600080fd5b50620002b9878288016200017f565b606087015190935090506001600160a01b0381168114620002d957600080fd5b939692955090935050565b600181811c90821680620002f957607f821691505b6020821081036200031a57634e487b7160e01b600052602260045260246000fd5b50919050565b601f82111562000370576000816000526020600020601f850160051c810160208610156200034b5750805b601f850160051c820191505b818110156200036c5782815560010162000357565b5050505b505050565b81516001600160401b0381111562000391576200039162000169565b620003a981620003a28454620002e4565b8462000320565b602080601f831160018114620003e15760008415620003c85750858301515b600019600386901b1c1916600185901b1785556200036c565b600085815260208120601f198616915b828110156200041257888601518255948401946001909101908401620003f1565b5085821015620004315787850151600019600388901b60f8161c191681555b5050505050600190811b01905550565b61180680620004516000396000f3fe608060405234801561001057600080fd5b506004361061012b5760003560e01c806391d14854116100ad578063d539139311610071578063d53913931461027b578063d547741f14610290578063e985e9c5146102a3578063f242432a146102b6578063f5298aca146102c957600080fd5b806391d148541461023257806395d89b4114610245578063a217fddf1461024d578063a22cb46514610255578063b6afc4dc1461026857600080fd5b8063248a9ca3116100f4578063248a9ca3146101b65780632eb2c2d6146101d95780632f2ff15d146101ec57806336568abe146101ff5780634e1273f41461021257600080fd5b8062fdd58e1461013057806301ffc9a71461015657806306fdde03146101795780630e89341c1461018e578063156e29f6146101a1575b600080fd5b61014361013e3660046110b8565b6102dc565b6040519081526020015b60405180910390f35b6101696101643660046110f8565b610304565b604051901515815260200161014d565b61018161030f565b60405161014d9190611162565b61018161019c366004611175565b61039d565b6101b46101af36600461118e565b610431565b005b6101436101c4366004611175565b60009081526003602052604090206001015490565b6101b46101e736600461130b565b61046a565b6101b46101fa3660046113b5565b6104d6565b6101b461020d3660046113b5565b6104fb565b6102256102203660046113e1565b610533565b60405161014d91906114dd565b6101696102403660046113b5565b610600565b61018161062b565b610143600081565b6101b46102633660046114f0565b610638565b6101b461027636600461152c565b610647565b6101436000805160206117b183398151915281565b6101b461029e3660046113b5565b6106bb565b6101696102b13660046115a7565b6106e0565b6101b46102c43660046115d1565b61070e565b6101b46102d736600461118e565b61076d565b6000818152602081815260408083206001600160a01b03861684529091529020545b92915050565b60006102fe82610790565b6004805461031c90611636565b80601f016020809104026020016040519081016040528092919081815260200182805461034890611636565b80156103955780601f1061036a57610100808354040283529160200191610395565b820191906000526020600020905b81548152906001019060200180831161037857829003601f168201915b505050505081565b6060600280546103ac90611636565b80601f01602080910402602001604051908101604052809291908181526020018280546103d890611636565b80156104255780601f106103fa57610100808354040283529160200191610425565b820191906000526020600020905b81548152906001019060200180831161040857829003601f168201915b50505050509050919050565b6000805160206117b1833981519152610449816107b5565b610464848484604051806020016040528060008152506107c2565b50505050565b336001600160a01b038616811480159061048b575061048986826106e0565b155b156104c15760405163711bec9160e11b81526001600160a01b038083166004830152871660248201526044015b60405180910390fd5b6104ce868686868661081f565b505050505050565b6000828152600360205260409020600101546104f1816107b5565b610464838361087f565b6001600160a01b03811633146105245760405163334bd91960e11b815260040160405180910390fd5b61052e8282610913565b505050565b606081518351146105645781518351604051635b05999160e01b8152600481019290925260248201526044016104b8565b6000835167ffffffffffffffff811115610580576105806111c1565b6040519080825280602002602001820160405280156105a9578160200160208202803683370190505b50905060005b84518110156105f8576020808202860101516105d3906020808402870101516102dc565b8282815181106105e5576105e5611670565b60209081029190910101526001016105af565b509392505050565b60009182526003602090815260408084206001600160a01b0393909316845291905290205460ff1690565b6005805461031c90611636565b610643338383610980565b5050565b6000805160206117b183398151915261065f816107b5565b60005b838110156106b4576106ac85858381811061067f5761067f611670565b90506020020160208101906106949190611686565b846001604051806020016040528060008152506107c2565b600101610662565b5050505050565b6000828152600360205260409020600101546106d6816107b5565b6104648383610913565b6001600160a01b03918216600090815260016020908152604080832093909416825291909152205460ff1690565b336001600160a01b038616811480159061072f575061072d86826106e0565b155b156107605760405163711bec9160e11b81526001600160a01b038083166004830152871660248201526044016104b8565b6104ce8686868686610a16565b6000805160206117b1833981519152610785816107b5565b610464848484610aa4565b60006001600160e01b03198216637965db0b60e01b14806102fe57506102fe82610b0c565b6107bf8133610b5c565b50565b6001600160a01b0384166107ec57604051632bfa23e760e11b8152600060048201526024016104b8565b604080516001808252602082018690528183019081526060820185905260808201909252906104ce600087848487610b95565b6001600160a01b03841661084957604051632bfa23e760e11b8152600060048201526024016104b8565b6001600160a01b03851661087257604051626a0d4560e21b8152600060048201526024016104b8565b6106b48585858585610b95565b600061088b8383610600565b61090b5760008381526003602090815260408083206001600160a01b03861684529091529020805460ff191660011790556108c33390565b6001600160a01b0316826001600160a01b0316847f2f8788117e7eff1d82e926ec794901d17c78024a50270940304540a733656f0d60405160405180910390a45060016102fe565b5060006102fe565b600061091f8383610600565b1561090b5760008381526003602090815260408083206001600160a01b0386168085529252808320805460ff1916905551339286917ff6391f5c32d9c69d2a47ea670b442974b53935d1edc7fd64eb21e047a839171b9190a45060016102fe565b6001600160a01b0382166109a95760405162ced3e160e81b8152600060048201526024016104b8565b6001600160a01b03838116600081815260016020908152604080832094871680845294825291829020805460ff191686151590811790915591519182527f17307eab39ab6107e8899845ad3d59bd9653f200f220920489ca2b5937696c31910160405180910390a3505050565b6001600160a01b038416610a4057604051632bfa23e760e11b8152600060048201526024016104b8565b6001600160a01b038516610a6957604051626a0d4560e21b8152600060048201526024016104b8565b60408051600180825260208201869052818301908152606082018590526080820190925290610a9b8787848487610b95565b50505050505050565b6001600160a01b038316610acd57604051626a0d4560e21b8152600060048201526024016104b8565b604080516001808252602082018590528183019081526060820184905260a082019092526000608082018181529192916106b491879185908590610b95565b60006001600160e01b03198216636cdb3d1360e11b1480610b3d57506001600160e01b031982166303a24d0760e21b145b806102fe57506301ffc9a760e01b6001600160e01b03198316146102fe565b610b668282610600565b6106435760405163e2517d3f60e01b81526001600160a01b0382166004820152602481018390526044016104b8565b610ba185858585610be8565b6001600160a01b038416156106b45782513390600103610bda5760208481015190840151610bd3838989858589610c7b565b50506104ce565b6104ce818787878787610d9f565b6001600160a01b03841615801590610c0857506001600160a01b03831615155b15610c6f5760405162461bcd60e51b815260206004820152603160248201527f50726f6a656374416363657373313135353a207472616e73666572732064697360448201527061626c65642028736f756c626f756e642960781b60648201526084016104b8565b61046484848484610e88565b6001600160a01b0384163b156104ce5760405163f23a6e6160e01b81526001600160a01b0385169063f23a6e6190610cbf90899089908890889088906004016116a1565b6020604051808303816000875af1925050508015610cfa575060408051601f3d908101601f19168201909252610cf7918101906116e6565b60015b610d63573d808015610d28576040519150601f19603f3d011682016040523d82523d6000602084013e610d2d565b606091505b508051600003610d5b57604051632bfa23e760e11b81526001600160a01b03861660048201526024016104b8565b805160208201fd5b6001600160e01b0319811663f23a6e6160e01b14610a9b57604051632bfa23e760e11b81526001600160a01b03861660048201526024016104b8565b6001600160a01b0384163b156104ce5760405163bc197c8160e01b81526001600160a01b0385169063bc197c8190610de39089908990889088908890600401611703565b6020604051808303816000875af1925050508015610e1e575060408051601f3d908101601f19168201909252610e1b918101906116e6565b60015b610e4c573d808015610d28576040519150601f19603f3d011682016040523d82523d6000602084013e610d2d565b6001600160e01b0319811663bc197c8160e01b14610a9b57604051632bfa23e760e11b81526001600160a01b03861660048201526024016104b8565b8051825114610eb75781518151604051635b05999160e01b8152600481019290925260248201526044016104b8565b3360005b8351811015610fbd576020818102858101820151908501909101516001600160a01b03881615610f6e576000828152602081815260408083206001600160a01b038c16845290915290205481811015610f47576040516303dee4c560e01b81526001600160a01b038a1660048201526024810182905260448101839052606481018490526084016104b8565b6000838152602081815260408083206001600160a01b038d16845290915290209082900390555b6001600160a01b03871615610fb3576000828152602081815260408083206001600160a01b038b16845290915281208054839290610fad908490611761565b90915550505b5050600101610ebb565b50825160010361103e5760208301516000906020840151909150856001600160a01b0316876001600160a01b0316846001600160a01b03167fc3d58168c5ae7397731d063d5bbf3d657854427343f4c083240f7aacaa2d0f62858560405161102f929190918252602082015260400190565b60405180910390a450506106b4565b836001600160a01b0316856001600160a01b0316826001600160a01b03167f4a39dc06d4c0dbc64b70af90fd698a233a518aa5d07e595d983b8c0526c8f7fb868660405161108d929190611782565b60405180910390a45050505050565b80356001600160a01b03811681146110b357600080fd5b919050565b600080604083850312156110cb57600080fd5b6110d48361109c565b946020939093013593505050565b6001600160e01b0319811681146107bf57600080fd5b60006020828403121561110a57600080fd5b8135611115816110e2565b9392505050565b6000815180845260005b8181101561114257602081850181015186830182015201611126565b506000602082860101526020601f19601f83011685010191505092915050565b602081526000611115602083018461111c565b60006020828403121561118757600080fd5b5035919050565b6000806000606084860312156111a357600080fd5b6111ac8461109c565b95602085013595506040909401359392505050565b634e487b7160e01b600052604160045260246000fd5b604051601f8201601f1916810167ffffffffffffffff81118282101715611200576112006111c1565b604052919050565b600067ffffffffffffffff821115611222576112226111c1565b5060051b60200190565b600082601f83011261123d57600080fd5b8135602061125261124d83611208565b6111d7565b8083825260208201915060208460051b87010193508684111561127457600080fd5b602086015b848110156112905780358352918301918301611279565b509695505050505050565b600082601f8301126112ac57600080fd5b813567ffffffffffffffff8111156112c6576112c66111c1565b6112d9601f8201601f19166020016111d7565b8181528460208386010111156112ee57600080fd5b816020850160208301376000918101602001919091529392505050565b600080600080600060a0868803121561132357600080fd5b61132c8661109c565b945061133a6020870161109c565b9350604086013567ffffffffffffffff8082111561135757600080fd5b61136389838a0161122c565b9450606088013591508082111561137957600080fd5b61138589838a0161122c565b9350608088013591508082111561139b57600080fd5b506113a88882890161129b565b9150509295509295909350565b600080604083850312156113c857600080fd5b823591506113d86020840161109c565b90509250929050565b600080604083850312156113f457600080fd5b823567ffffffffffffffff8082111561140c57600080fd5b818501915085601f83011261142057600080fd5b8135602061143061124d83611208565b82815260059290921b8401810191818101908984111561144f57600080fd5b948201945b83861015611474576114658661109c565b82529482019490820190611454565b9650508601359250508082111561148a57600080fd5b506114978582860161122c565b9150509250929050565b60008151808452602080850194506020840160005b838110156114d2578151875295820195908201906001016114b6565b509495945050505050565b60208152600061111560208301846114a1565b6000806040838503121561150357600080fd5b61150c8361109c565b91506020830135801515811461152157600080fd5b809150509250929050565b60008060006040848603121561154157600080fd5b833567ffffffffffffffff8082111561155957600080fd5b818601915086601f83011261156d57600080fd5b81358181111561157c57600080fd5b8760208260051b850101111561159157600080fd5b6020928301989097509590910135949350505050565b600080604083850312156115ba57600080fd5b6115c38361109c565b91506113d86020840161109c565b600080600080600060a086880312156115e957600080fd5b6115f28661109c565b94506116006020870161109c565b93506040860135925060608601359150608086013567ffffffffffffffff81111561162a57600080fd5b6113a88882890161129b565b600181811c9082168061164a57607f821691505b60208210810361166a57634e487b7160e01b600052602260045260246000fd5b50919050565b634e487b7160e01b600052603260045260246000fd5b60006020828403121561169857600080fd5b6111158261109c565b6001600160a01b03868116825285166020820152604081018490526060810183905260a0608082018190526000906116db9083018461111c565b979650505050505050565b6000602082840312156116f857600080fd5b8151611115816110e2565b6001600160a01b0386811682528516602082015260a06040820181905260009061172f908301866114a1565b828103606084015261174181866114a1565b90508281036080840152611755818561111c565b98975050505050505050565b808201808211156102fe57634e487b7160e01b600052601160045260246000fd5b60408152600061179560408301856114a1565b82810360208401526117a781856114a1565b9594505050505056fe9f2df0fed2c77648de5860a4cc508cd0818c85b8b8a1ab4ceeef8d981c8956a6a2646970667358221220b5939980cfc246a922ebbf5167c78468c285ebcfc267c60c8afd9907f8fb0dcc64736f6c63430008180033",
  "linkReferences": {},
  "deployedLinkReferences": {}
}